{
  "_format": "hh-sol-artifact-1",
  "contractName": "AgriTrace",
  "sourceName": "contracts/AgriTrace.sol",
  "abi": [
    {
      "inputs": [],
      "stateMutability": "nonpayable",
      "type": "constructor"
    },
    {
      "anonymous": false,
      "inputs": [
        {
          "indexed": true,
          "internalType": "string",
          "name": "qrCode",
          "type": "string"
        },
        {
          "indexed": false,
          "internalType": "bytes32",
          "name": "dataHash",
          "type": "bytes32"
        },
        {
          "indexed": true,
          "internalType": "address",
          "name": "recorder",
          "type": "address"
        },
        {
          "indexed": false,
          "internalType": "uint256",
          "name": "timestamp",
          "type": "uint256"
        }
      ],
      "name": "HarvestRecorded",
      "type": "event"
    },
    {
      "anonymous": false,
      "inputs": [
        {
          "indexed": true,
          "internalType": "string",
          "name": "shipmentId",
          "type": "string"
        },
        {
          "indexed": false,
          "internalType": "bytes32",
          "name": "dataHash",
          "type": "bytes32"
        },
        {
          "indexed": true,
          "internalType": "address",
          "name": "recorder",
          "type": "address"
        },
        {
          "indexed": false,
          "internalType": "uint256",
          "name": "timestamp",
          "type": "uint256"
        }
      ],
      "name": "ShipmentRecorded",
      "type": "event"
    },
    {
      "inputs": [
        {
          "internalType": "string",
          "name": "qrCode",
          "type": "string"
        }
      ],
      "name": "getHarvest",
      "outputs": [
        {
          "internalType": "bytes32",
          "name": "dataHash",
          "type": "bytes32"
        },
        {
          "internalType": "address",
          "name": "recorder",
          "type": "address"
        },
        {
          "internalType": "uint256",
          "name": "timestamp",
          "type": "uint256"
        },
        {
          "internalType": "bool",
          "name": "exists",
          "type": "bool"
        }
      ],
      "stateMutability": "view",
      "type": "function"
    },
    {
      "inputs": [
        {
          "internalType": "string",
          "name": "shipmentId",
          "type": "string"
        }
      ],
      "name": "getShipment",
      "outputs": [
        {
          "internalType": "bytes32",
          "name": "dataHash",
          "type": "bytes32"
        },
        {
          "internalType": "address",
          "name": "recorder",
          "type": "address"
        },
        {
          "internalType": "uint256",
          "name": "timestamp",
          "type": "uint256"
        },
        {
          "internalType": "bool",
          "name": "exists",
          "type": "bool"
        }
      ],
      "stateMutability": "view",
      "type": "function"
    },
    {
      "inputs": [],
      "name": "owner",
      "outputs": [
        {
          "internalType": "address",
          "name": "",
          "type": "address"
        }
      ],
      "stateMutability": "view",
      "type": "function"
    },
    {
      "inputs": [
        {
          "internalType": "string",
          "name": "qrCode",
          "type": "string"
        },
        {
          "internalType": "bytes32",
          "name": "dataHash",
          "type": "bytes32"
        }
      ],
      "name": "recordHarvest",
      "outputs": [],
      "stateMutability": "nonpayable",
      "type": "function"
    },
    {
      "inputs": [
        {
          "internalType": "string",
          "name": "shipmentId",
          "type": "string"
        },
        {
          "internalType": "bytes32",
          "name": "dataHash",
          "type": "bytes32"
        }
      ],
      "name": "recordShipment",
      "outputs": [],
      "stateMutability": "nonpayable",
      "type": "function"
    },
    {
      "inputs": [
        {
          "internalType": "string",
          "name": "qrCode",
          "type": "string"
        },
        {
          "internalType": "bytes32",
          "name": "dataHash",
          "type": "bytes32"
        }
      ],
      "name": "verifyHarvest",
      "outputs": [
        {
          "internalType": "bool",
          "name": "",
          "type": "bool"
        }
      ],
      "stateMutability": "view",
      "type": "function"
    }
  ],
  "bytecode": "0x608060405234801561001057600080fd5b50600280546001600160a01b0319163317905561067e806100326000396000f3fe608060405234801561001057600080fd5b50600436106100625760003560e01c80632f8e60001461006757806372c9379b1461007c5780638a252bed146100be5780638da5cb5b146100d1578063da34f3d5146100fc578063f68ea5d51461010f575b600080fd5b61007a6100753660046105aa565b610132565b005b61008f61008a3660046105f6565b6102e7565b604080519485526001600160a01b03909316602085015291830152151560608201526080015b60405180910390f35b61007a6100cc3660046105aa565b610341565b6002546100e4906001600160a01b031681565b6040516001600160a01b0390911681526020016100b5565b61008f61010a3660046105f6565b6104ea565b61012261011d3660046105aa565b610504565b60405190151581526020016100b5565b816101845760405162461bcd60e51b815260206004820152601760248201527f4167726954726163653a20656d707479207172436f646500000000000000000060448201526064015b60405180910390fd5b60008383604051610196929190610638565b9081526040519081900360200190206003015460ff16156102055760405162461bcd60e51b815260206004820152602360248201527f4167726954726163653a206861727665737420616c7265616479207265636f7260448201526219195960ea1b606482015260840161017b565b6040805160808101825282815233602082015242818301526001606082015290516000906102369086908690610638565b908152604080516020928190038301812084518155928401516001840180546001600160a01b0319166001600160a01b039092169190911790559083015160028301556060909201516003909101805460ff191691151591909117905533906102a29085908590610638565b60408051918290038220848352426020840152917fa48533dae85751fedb5a46d06107ef506782376e8624b9858d3a0ce96dddfabb91015b60405180910390a3505050565b6000806000806000808787604051610300929190610638565b9081526040519081900360200190208054600182015460028301546003909301549197506001600160a01b0316955090935060ff1691505092959194509250565b8161038e5760405162461bcd60e51b815260206004820152601b60248201527f4167726954726163653a20656d70747920736869706d656e7449640000000000604482015260640161017b565b600183836040516103a0929190610638565b9081526040519081900360200190206003015460ff161561040f5760405162461bcd60e51b8152602060048201526024808201527f4167726954726163653a20736869706d656e7420616c7265616479207265636f6044820152631c99195960e21b606482015260840161017b565b60408051608081018252828152336020820152428183015260016060820181905291519091906104429086908690610638565b908152604080516020928190038301812084518155928401516001840180546001600160a01b0319166001600160a01b039092169190911790559083015160028301556060909201516003909101805460ff191691151591909117905533906104ae9085908590610638565b60408051918290038220848352426020840152917f1a855ba05b504de3390d5335893f88b1da3727777b65cc825df5aeef839b967991016102da565b600080600080600060018787604051610300929190610638565b6000808484604051610517929190610638565b9081526040519081900360200190206003015460ff16801561055957508160008585604051610547929190610638565b90815260405190819003602001902054145b949350505050565b60008083601f84011261057357600080fd5b50813567ffffffffffffffff81111561058b57600080fd5b6020830191508360208285010111156105a357600080fd5b9250929050565b6000806000604084860312156105bf57600080fd5b833567ffffffffffffffff8111156105d657600080fd5b6105e286828701610561565b909790965060209590950135949350505050565b6000806020838503121561060957600080fd5b823567ffffffffffffffff81111561062057600080fd5b61062c85828601610561565b90969095509350505050565b818382376000910190815291905056fea26469706673582212200d7f70b245d69ef1b80b0559f20694fa5a5969a1ee2ca6300b4d02bc4b709d3564736f6c63430008140033",
  "linkReferences": {},
  "deployedLinkReferences": {}
}